{
  "contractName": "Election",
  "abi": [
    {
      "constant": true,
      "inputs": [],
      "name": "candidateName",
      "outputs": [
        {
          "internalType": "string",
          "name": "",
          "type": "string"
        }
      ],
      "payable": false,
      "stateMutability": "view",
      "type": "function"
    },
    {
      "constant": false,
      "inputs": [],
      "name": "Elections",
      "outputs": [],
      "payable": false,
      "stateMutability": "nonpayable",
      "type": "function"
    },
    {
      "constant": false,
      "inputs": [
        {
          "internalType": "string",
          "name": "name",
          "type": "string"
        }
      ],
      "name": "setCandidate",
      "outputs": [],
      "payable": false,
      "stateMutability": "nonpayable",
      "type": "function"
    }
  ],
  "bytecode": "0x608060405234801561001057600080fd5b5061031d806100206000396000f3fe608060405234801561001057600080fd5b50600436106100415760003560e01c8063256db31f146100465780635ee0541d14610050578063822d3cf0146100cd575b600080fd5b61004e610173565b005b6100586101a8565b6040805160208082528351818301528351919283929083019185019080838360005b8381101561009257818101518382015260200161007a565b50505050905090810190601f1680156100bf5780820380516001836020036101000a031916815260200191505b509250505060405180910390f35b61004e600480360360208110156100e357600080fd5b8101906020810181356401000000008111156100fe57600080fd5b82018360208201111561011057600080fd5b8035906020019184600183028401116401000000008311171561013257600080fd5b91908080601f016020809104026020016040519081016040528093929190818152602001838380828437600092019190915250929550610236945050505050565b60408051808201909152600b8082526a43616e646964617465203160a81b60209092019182526101a59160009161024d565b50565b6000805460408051602060026001851615610100026000190190941693909304601f8101849004840282018401909252818152929183018282801561022e5780601f106102035761010080835404028352916020019161022e565b820191906000526020600020905b81548152906001019060200180831161021157829003601f168201915b505050505081565b805161024990600090602084019061024d565b5050565b828054600181600116156101000203166002900490600052602060002090601f016020900481019282601f1061028e57805160ff19168380011785556102bb565b828001600101855582156102bb579182015b828111156102bb5782518255916020019190600101906102a0565b506102c79291506102cb565b5090565b6102e591905b808211156102c757600081556001016102d1565b9056fea265627a7a72315820daeaaecd8988136d9955b6e7590758adb90b44d7e6ed2593d8f5c55dc43ac26164736f6c63430005100032",
  "source": "// SPDX-License-Identifier: MIT\npragma solidity >=0.4.22 <0.9.0;\n\ncontract Election {\n  string public candidateName;\n  function Elections() public {\n    candidateName = \"Candidate 1\";\n  }\n  function setCandidate(string memory name) public {\n    candidateName = name;\n  }\n}\n",
  "sourcePath": "/Users/lucianootto/Desktop/simple_frontend_blockchain/contracts/Election.sol",
  "compiler": {
    "name": "solc",
    "version": "0.5.16+commit.9c3226ce.Emscripten.clang"
  },
  "schemaVersion": "3.4.16",
  "updatedAt": "2025-05-20T20:46:03.404Z",
  "networkType": "ethereum",
  "devdoc": {
    "methods": {}
  },
  "userdoc": {
    "methods": {}
  }
}