{
  "contractName": "StoreManager",
  "abi": [
    {
      "inputs": [],
      "stateMutability": "nonpayable",
      "type": "constructor"
    },
    {
      "anonymous": false,
      "inputs": [
        {
          "indexed": true,
          "internalType": "uint256",
          "name": "productId",
          "type": "uint256"
        },
        {
          "indexed": false,
          "internalType": "address",
          "name": "buyer",
          "type": "address"
        },
        {
          "indexed": false,
          "internalType": "address",
          "name": "seller",
          "type": "address"
        },
        {
          "indexed": false,
          "internalType": "uint256",
          "name": "amount",
          "type": "uint256"
        }
      ],
      "name": "PaymentSuccessful",
      "type": "event"
    },
    {
      "anonymous": false,
      "inputs": [
        {
          "indexed": true,
          "internalType": "uint256",
          "name": "id",
          "type": "uint256"
        },
        {
          "indexed": false,
          "internalType": "string",
          "name": "name",
          "type": "string"
        },
        {
          "indexed": false,
          "internalType": "uint256",
          "name": "quantity",
          "type": "uint256"
        },
        {
          "indexed": false,
          "internalType": "uint256",
          "name": "unitPrice",
          "type": "uint256"
        },
        {
          "indexed": false,
          "internalType": "address",
          "name": "seller",
          "type": "address"
        }
      ],
      "name": "ProductCreated",
      "type": "event"
    },
    {
      "inputs": [
        {
          "internalType": "uint256",
          "name": "",
          "type": "uint256"
        }
      ],
      "name": "payments",
      "outputs": [
        {
          "internalType": "address",
          "name": "buyer",
          "type": "address"
        },
        {
          "internalType": "uint256",
          "name": "amount",
          "type": "uint256"
        },
        {
          "internalType": "uint256",
          "name": "timestamp",
          "type": "uint256"
        }
      ],
      "stateMutability": "view",
      "type": "function",
      "constant": true
    },
    {
      "inputs": [],
      "name": "productCount",
      "outputs": [
        {
          "internalType": "uint256",
          "name": "",
          "type": "uint256"
        }
      ],
      "stateMutability": "view",
      "type": "function",
      "constant": true
    },
    {
      "inputs": [
        {
          "internalType": "uint256",
          "name": "",
          "type": "uint256"
        }
      ],
      "name": "products",
      "outputs": [
        {
          "internalType": "uint256",
          "name": "id",
          "type": "uint256"
        },
        {
          "internalType": "string",
          "name": "name",
          "type": "string"
        },
        {
          "internalType": "uint256",
          "name": "quantity",
          "type": "uint256"
        },
        {
          "internalType": "uint256",
          "name": "unitPrice",
          "type": "uint256"
        },
        {
          "internalType": "address",
          "name": "seller",
          "type": "address"
        },
        {
          "internalType": "bool",
          "name": "isPaid",
          "type": "bool"
        }
      ],
      "stateMutability": "view",
      "type": "function",
      "constant": true
    },
    {
      "inputs": [
        {
          "internalType": "uint256",
          "name": "_id",
          "type": "uint256"
        },
        {
          "internalType": "string",
          "name": "_name",
          "type": "string"
        },
        {
          "internalType": "uint256",
          "name": "_quantity",
          "type": "uint256"
        },
        {
          "internalType": "uint256",
          "name": "_unitPrice",
          "type": "uint256"
        }
      ],
      "name": "createProduct",
      "outputs": [],
      "stateMutability": "nonpayable",
      "type": "function"
    },
    {
      "inputs": [
        {
          "internalType": "uint256",
          "name": "_productId",
          "type": "uint256"
        }
      ],
      "name": "payForProduct",
      "outputs": [],
      "stateMutability": "payable",
      "type": "function",
      "payable": true
    },
    {
      "inputs": [
        {
          "internalType": "uint256",
          "name": "_productId",
          "type": "uint256"
        }
      ],
      "name": "calculateTotalPrice",
      "outputs": [
        {
          "internalType": "uint256",
          "name": "",
          "type": "uint256"
        }
      ],
      "stateMutability": "view",
      "type": "function",
      "constant": true
    },
    {
      "inputs": [
        {
          "internalType": "uint256",
          "name": "_productId",
          "type": "uint256"
        }
      ],
      "name": "getProduct",
      "outputs": [
        {
          "internalType": "string",
          "name": "",
          "type": "string"
        },
        {
          "internalType": "uint256",
          "name": "",
          "type": "uint256"
        },
        {
          "internalType": "uint256",
          "name": "",
          "type": "uint256"
        },
        {
          "internalType": "address",
          "name": "",
          "type": "address"
        },
        {
          "internalType": "bool",
          "name": "",
          "type": "bool"
        }
      ],
      "stateMutability": "view",
      "type": "function",
      "constant": true
    }
  ],
  "bytecode": "0x608060405234801561001057600080fd5b506000600255610ce4806100256000396000f3fe6080604052600436106100705760003560e01c8063c4bc508e1161004e578063c4bc508e14610110578063d420aa271461013d578063e0f6ef8714610152578063f4a44d2d1461016757610070565b80637acc0b201461007557806387d81789146100b0578063b9db15b4146100df575b600080fd5b34801561008157600080fd5b506100956100903660046108ae565b610187565b6040516100a796959493929190610bc4565b60405180910390f35b3480156100bc57600080fd5b506100d06100cb3660046108ae565b610255565b6040516100a7939291906109f2565b3480156100eb57600080fd5b506100ff6100fa3660046108ae565b610281565b6040516100a7959493929190610a4b565b34801561011c57600080fd5b5061013061012b3660046108ae565b6103d5565b6040516100a79190610bbb565b61015061014b3660046108ae565b610500565b005b34801561015e57600080fd5b506101306106c4565b34801561017357600080fd5b506101506101823660046108c6565b6106ca565b600060208190529081526040902080546001820180549192916101a990610c2c565b80601f01602080910402602001604051908101604052809291908181526020018280546101d590610c2c565b80156102225780601f106101f757610100808354040283529160200191610222565b820191906000526020600020905b81548152906001019060200180831161020557829003601f168201915b5050505060028301546003840154600490940154929390929091506001600160a01b03811690600160a01b900460ff1686565b60016020819052600091825260409091208054918101546002909101546001600160a01b039092169183565b606060008060008060008060008881526020019081526020016000206040518060c0016040529081600082015481526020016001820180546102c290610c2c565b80601f01602080910402602001604051908101604052809291908181526020018280546102ee90610c2c565b801561033b5780601f106103105761010080835404028352916020019161033b565b820191906000526020600020905b81548152906001019060200180831161031e57829003601f168201915b505050918352505060028201546020820152600382015460408201526004909101546001600160a01b0381166060830152600160a01b900460ff161515608090910152805190915087146103aa5760405162461bcd60e51b81526004016103a190610a8d565b60405180910390fd5b602081015160408201516060830151608084015160a090940151929a91995097509195509350915050565b600081815260208181526040808320815160c081019092528054825260018101805485948401919061040690610c2c565b80601f016020809104026020016040519081016040528092919081815260200182805461043290610c2c565b801561047f5780601f106104545761010080835404028352916020019161047f565b820191906000526020600020905b81548152906001019060200180831161046257829003601f168201915b505050918352505060028201546020820152600382015460408201526004909101546001600160a01b0381166060830152600160a01b900460ff161515608090910152805190915083146104e55760405162461bcd60e51b81526004016103a190610a8d565b806060015181604001516104f99190610c0d565b9392505050565b60008181526020819052604090208054821461052e5760405162461bcd60e51b81526004016103a190610a8d565b6004810154600160a01b900460ff161561055a5760405162461bcd60e51b81526004016103a190610b54565b8060030154816002015461056e9190610c0d565b341461058c5760405162461bcd60e51b81526004016103a190610ae6565b60048101805460ff60a01b1916600160a01b17815560408051606081018252338152346020808301828152428486019081526000898152600193849052868120955186546001600160a01b039182166001600160a01b03199091161787559251938601939093555160029094019390935593549251929091169161060f906109cb565b60006040518083038185875af1925050503d806000811461064c576040519150601f19603f3d011682016040523d82523d6000602084013e610651565b606091505b50509050806106725760405162461bcd60e51b81526004016103a190610abd565b600482015460405184917f4e083b773ab2e4b21f3c2989f2932a86856c8639dd73e802c8c6da70409b6c17916106b79133916001600160a01b039091169034906109ce565b60405180910390a2505050565b60025481565b600082116106ea5760405162461bcd60e51b81526004016103a190610b1d565b6000811161070a5760405162461bcd60e51b81526004016103a190610b8b565b6040805160c081018252858152602080820186815282840186905260608301859052336080840152600060a084018190528881528083529390932082518155925180519293926107609260018501920190610815565b5060408201516002808301919091556060830151600383015560808301516004909201805460a0909401511515600160a01b0260ff60a01b196001600160a01b039094166001600160a01b0319909516949094179290921692909217905580549060006107cc83610c67565b9190505550837f75f809131c39228d740da0b686206b8ae86548c72bfdc872da71f4d4340301de848484336040516108079493929190610a13565b60405180910390a250505050565b82805461082190610c2c565b90600052602060002090601f0160209004810192826108435760008555610889565b82601f1061085c57805160ff1916838001178555610889565b82800160010185558215610889579182015b8281111561088957825182559160200191906001019061086e565b50610895929150610899565b5090565b5b80821115610895576000815560010161089a565b6000602082840312156108bf578081fd5b5035919050565b600080600080608085870312156108db578283fd5b8435935060208086013567ffffffffffffffff808211156108fa578586fd5b818801915088601f83011261090d578586fd5b81358181111561091f5761091f610c98565b604051601f8201601f191681018501838111828210171561094257610942610c98565b60405281815283820185018b1015610958578788fd5b8185850186830137908101909301959095525093969395505050506040820135916060013590565b60008151808452815b818110156109a557602081850181015186830182015201610989565b818111156109b65782602083870101525b50601f01601f19169290920160200192915050565b90565b6001600160a01b039384168152919092166020820152604081019190915260600190565b6001600160a01b039390931683526020830191909152604082015260600190565b600060808252610a266080830187610980565b60208301959095525060408101929092526001600160a01b0316606090910152919050565b600060a08252610a5e60a0830188610980565b60208301969096525060408101939093526001600160a01b039190911660608301521515608090910152919050565b602080825260169082015275141c9bd91d58dd08191bd95cc81b9bdd08195e1a5cdd60521b604082015260600190565b6020808252600f908201526e151c985b9cd9995c8819985a5b1959608a1b604082015260600190565b60208082526018908201527f496e636f7272656374207061796d656e7420616d6f756e740000000000000000604082015260600190565b60208082526019908201527f5175616e74697479206d75737420626520706f73697469766500000000000000604082015260600190565b60208082526018908201527f50726f6475637420616c7265616479207061696420666f720000000000000000604082015260600190565b6020808252601690820152755072696365206d75737420626520706f73697469766560501b604082015260600190565b90815260200190565b600087825260c06020830152610bdd60c0830188610980565b60408301969096525060608101939093526001600160a01b03919091166080830152151560a09091015292915050565b6000816000190483118215151615610c2757610c27610c82565b500290565b600281046001821680610c4057607f821691505b60208210811415610c6157634e487b7160e01b600052602260045260246000fd5b50919050565b6000600019821415610c7b57610c7b610c82565b5060010190565b634e487b7160e01b600052601160045260246000fd5b634e487b7160e01b600052604160045260246000fdfea2646970667358221220bf6085724ab701e5fedaac121f6f0f081a7bca1efa1fed925895e95216478ad164736f6c63430008000033",
  "immutableReferences": {},
  "source": "// SPDX-License-Identifier: MIT\npragma solidity ^0.8.0;\n\ncontract StoreManager {\n    // Struct to store product information\n    struct Product {\n        uint256 id;\n        string name;\n        uint256 quantity;\n        uint256 unitPrice;\n        address seller;\n        bool isPaid;\n    }\n\n    // Struct to store payment information\n    struct Payment {\n        address buyer;\n        uint256 amount;\n        uint256 timestamp;\n    }\n\n    // Mappings for storage\n    mapping(uint256 => Product) public products;\n    mapping(uint256 => Payment) public payments;\n    uint256 public productCount;\n\n    // Constructor\n    constructor() {\n        productCount = 0;\n    }\n\n    // Events\n    event ProductCreated(\n        uint256 indexed id,\n        string name,\n        uint256 quantity,\n        uint256 unitPrice,\n        address seller\n    );\n\n    event PaymentSuccessful(\n        uint256 indexed productId,\n        address buyer,\n        address seller,\n        uint256 amount\n    );\n\n    // Create a new product\n    function createProduct(\n        uint256 _id,\n        string memory _name,\n        uint256 _quantity,\n        uint256 _unitPrice\n    ) external {\n        require(_quantity > 0, \"Quantity must be positive\");\n        require(_unitPrice > 0, \"Price must be positive\");\n\n        products[_id] = Product({\n            id: _id,\n            name: _name,\n            quantity: _quantity,\n            unitPrice: _unitPrice,\n            seller: msg.sender,\n            isPaid: false\n        });\n\n        productCount++;\n        emit ProductCreated(_id, _name, _quantity, _unitPrice, msg.sender);\n    }\n\n    // Pay for a product\n    function payForProduct(uint256 _productId) external payable {\n        Product storage product = products[_productId];\n        require(product.id == _productId, \"Product does not exist\");\n        require(!product.isPaid, \"Product already paid for\");\n        require(\n            msg.value == (product.quantity * product.unitPrice),\n            \"Incorrect payment amount\"\n        );\n\n        // Mark as paid\n        product.isPaid = true;\n\n        // Record payment\n        payments[_productId] = Payment({\n            buyer: msg.sender,\n            amount: msg.value,\n            timestamp: block.timestamp\n        });\n\n        // Transfer funds to seller using call\n        (bool success, ) = payable(product.seller).call{value: msg.value}(\"\");\n        require(success, \"Transfer failed\");\n\n        emit PaymentSuccessful(\n            _productId,\n            msg.sender,\n            product.seller,\n            msg.value\n        );\n    }\n\n    // Calculate total price (view function)\n    function calculateTotalPrice(uint256 _productId)\n        external\n        view\n        returns (uint256)\n    {\n        Product memory product = products[_productId];\n        require(product.id == _productId, \"Product does not exist\");\n        return product.quantity * product.unitPrice;\n    }\n\n    // Get product details (view function)\n    function getProduct(uint256 _productId)\n        external\n        view\n        returns (\n            string memory,\n            uint256,\n            uint256,\n            address,\n            bool\n        )\n    {\n        Product memory product = products[_productId];\n        require(product.id == _productId, \"Product does not exist\");\n        return (\n            product.name,\n            product.quantity,\n            product.unitPrice,\n            product.seller,\n            product.isPaid\n        );\n    }\n}",
  "sourcePath": "C:\\Users\\johnc\\Documents\\Github\\Blockchain-dAPP\\simple_frontend_blockchain\\contracts\\StoreManager.sol",
  "compiler": {
    "name": "solc",
    "version": "0.8.0+commit.c7dfd78e.Emscripten.clang"
  },
  "schemaVersion": "3.4.16",
  "updatedAt": "2025-05-30T20:01:42.958Z",
  "networkType": "ethereum",
  "devdoc": {
    "kind": "dev",
    "methods": {},
    "version": 1
  },
  "userdoc": {
    "kind": "user",
    "methods": {},
    "version": 1
  }
}