{
  "contractName": "StoreManager",
  "abi": [
    {
      "inputs": [],
      "stateMutability": "nonpayable",
      "type": "constructor"
    },
    {
      "anonymous": false,
      "inputs": [
        {
          "indexed": true,
          "internalType": "uint256",
          "name": "productId",
          "type": "uint256"
        },
        {
          "indexed": false,
          "internalType": "address",
          "name": "buyer",
          "type": "address"
        },
        {
          "indexed": false,
          "internalType": "address",
          "name": "seller",
          "type": "address"
        },
        {
          "indexed": false,
          "internalType": "uint256",
          "name": "amount",
          "type": "uint256"
        }
      ],
      "name": "PaymentSuccessful",
      "type": "event"
    },
    {
      "anonymous": false,
      "inputs": [
        {
          "indexed": true,
          "internalType": "uint256",
          "name": "id",
          "type": "uint256"
        },
        {
          "indexed": false,
          "internalType": "string",
          "name": "name",
          "type": "string"
        },
        {
          "indexed": false,
          "internalType": "uint256",
          "name": "quantity",
          "type": "uint256"
        },
        {
          "indexed": false,
          "internalType": "uint256",
          "name": "unitPrice",
          "type": "uint256"
        },
        {
          "indexed": false,
          "internalType": "address",
          "name": "seller",
          "type": "address"
        }
      ],
      "name": "ProductCreated",
      "type": "event"
    },
    {
      "inputs": [
        {
          "internalType": "uint256",
          "name": "",
          "type": "uint256"
        }
      ],
      "name": "allProductsIds",
      "outputs": [
        {
          "internalType": "uint256",
          "name": "",
          "type": "uint256"
        }
      ],
      "stateMutability": "view",
      "type": "function",
      "constant": true
    },
    {
      "inputs": [
        {
          "internalType": "uint256",
          "name": "",
          "type": "uint256"
        }
      ],
      "name": "payments",
      "outputs": [
        {
          "internalType": "address",
          "name": "buyer",
          "type": "address"
        },
        {
          "internalType": "uint256",
          "name": "amount",
          "type": "uint256"
        },
        {
          "internalType": "uint256",
          "name": "timestamp",
          "type": "uint256"
        }
      ],
      "stateMutability": "view",
      "type": "function",
      "constant": true
    },
    {
      "inputs": [],
      "name": "productCount",
      "outputs": [
        {
          "internalType": "uint256",
          "name": "",
          "type": "uint256"
        }
      ],
      "stateMutability": "view",
      "type": "function",
      "constant": true
    },
    {
      "inputs": [
        {
          "internalType": "uint256",
          "name": "",
          "type": "uint256"
        }
      ],
      "name": "products",
      "outputs": [
        {
          "internalType": "uint256",
          "name": "id",
          "type": "uint256"
        },
        {
          "internalType": "string",
          "name": "name",
          "type": "string"
        },
        {
          "internalType": "uint256",
          "name": "quantity",
          "type": "uint256"
        },
        {
          "internalType": "uint256",
          "name": "unitPrice",
          "type": "uint256"
        },
        {
          "internalType": "address",
          "name": "seller",
          "type": "address"
        },
        {
          "internalType": "bool",
          "name": "isPaid",
          "type": "bool"
        }
      ],
      "stateMutability": "view",
      "type": "function",
      "constant": true
    },
    {
      "inputs": [
        {
          "internalType": "string",
          "name": "_name",
          "type": "string"
        },
        {
          "internalType": "uint256",
          "name": "_quantity",
          "type": "uint256"
        },
        {
          "internalType": "uint256",
          "name": "_unitPrice",
          "type": "uint256"
        }
      ],
      "name": "createProduct",
      "outputs": [],
      "stateMutability": "nonpayable",
      "type": "function"
    },
    {
      "inputs": [
        {
          "internalType": "uint256",
          "name": "_productId",
          "type": "uint256"
        }
      ],
      "name": "payForProduct",
      "outputs": [],
      "stateMutability": "payable",
      "type": "function",
      "payable": true
    },
    {
      "inputs": [
        {
          "internalType": "uint256",
          "name": "_productId",
          "type": "uint256"
        }
      ],
      "name": "calculateTotalPrice",
      "outputs": [
        {
          "internalType": "uint256",
          "name": "",
          "type": "uint256"
        }
      ],
      "stateMutability": "view",
      "type": "function",
      "constant": true
    },
    {
      "inputs": [
        {
          "internalType": "uint256",
          "name": "_productId",
          "type": "uint256"
        }
      ],
      "name": "getProduct",
      "outputs": [
        {
          "internalType": "string",
          "name": "",
          "type": "string"
        },
        {
          "internalType": "uint256",
          "name": "",
          "type": "uint256"
        },
        {
          "internalType": "uint256",
          "name": "",
          "type": "uint256"
        },
        {
          "internalType": "address",
          "name": "",
          "type": "address"
        },
        {
          "internalType": "bool",
          "name": "",
          "type": "bool"
        }
      ],
      "stateMutability": "view",
      "type": "function",
      "constant": true
    },
    {
      "inputs": [],
      "name": "getAllProductIds",
      "outputs": [
        {
          "internalType": "uint256[]",
          "name": "",
          "type": "uint256[]"
        }
      ],
      "stateMutability": "view",
      "type": "function",
      "constant": true
    }
  ],
  "bytecode": "0x608060405234801561001057600080fd5b5060006003556001600455610e498061002a6000396000f3fe6080604052600436106100865760003560e01c8063b9db15b411610059578063b9db15b414610139578063c4bc508e1461016a578063d420aa2714610197578063e0f6ef87146101aa578063fe1823af146101bf57610086565b8063663c01af1461008b5780637acc0b20146100b65780637bf12b1c146100e857806387d817891461010a575b600080fd5b34801561009757600080fd5b506100a06101df565b6040516100ad9190610b34565b60405180910390f35b3480156100c257600080fd5b506100d66100d1366004610a89565b610237565b6040516100ad96959493929190610d29565b3480156100f457600080fd5b506101086101033660046109d9565b610305565b005b34801561011657600080fd5b5061012a610125366004610a89565b6104a3565b6040516100ad93929190610b13565b34801561014557600080fd5b50610159610154366004610a89565b6104cf565b6040516100ad959493929190610bb0565b34801561017657600080fd5b5061018a610185366004610a89565b61061d565b6040516100ad9190610d20565b6101086101a5366004610a89565b61074b565b3480156101b657600080fd5b5061018a610919565b3480156101cb57600080fd5b5061018a6101da366004610a89565b61091f565b6060600280548060200260200160405190810160405280929190818152602001828054801561022d57602002820191906000526020600020905b815481526020019060010190808311610219575b5050505050905090565b6000602081905290815260409020805460018201805491929161025990610d91565b80601f016020809104026020016040519081016040528092919081815260200182805461028590610d91565b80156102d25780601f106102a7576101008083540402835291602001916102d2565b820191906000526020600020905b8154815290600101906020018083116102b557829003601f168201915b5050505060028301546003840154600490940154929390929091506001600160a01b03811690600160a01b900460ff1686565b6000821161032e5760405162461bcd60e51b815260040161032590610c82565b60405180910390fd5b6000811161034e5760405162461bcd60e51b815260040161032590610cf0565b6004546040805160c081018252828152602080820187815282840187905260608301869052336080840152600060a084018190528581528083529390932082518155925180519293926103a79260018501920190610940565b5060408201516002820155606082015160038083019190915560808301516004909201805460a0909401511515600160a01b0260ff60a01b196001600160a01b039094166001600160a01b03199095169490941792909216929092179055805490600061041383610dcc565b9190505550807f75f809131c39228d740da0b686206b8ae86548c72bfdc872da71f4d4340301de8585853360405161044e9493929190610b78565b60405180910390a26004805490600061046683610dcc565b9091555050600280546001810182556000919091527f405787fa12a823e0f2b7631cc41b3ba8828b3321ca811111fa75cd3aa3bb5ace0155505050565b60016020819052600091825260409091208054918101546002909101546001600160a01b039092169183565b606060008060008060008060008881526020019081526020016000206040518060c00160405290816000820154815260200160018201805461051090610d91565b80601f016020809104026020016040519081016040528092919081815260200182805461053c90610d91565b80156105895780601f1061055e57610100808354040283529160200191610589565b820191906000526020600020905b81548152906001019060200180831161056c57829003601f168201915b505050918352505060028201546020820152600382015460408201526004909101546001600160a01b038082166060840152600160a01b90910460ff16151560809283015290820151919250166105f25760405162461bcd60e51b815260040161032590610bf2565b602081015160408201516060830151608084015160a090940151929a91995097509195509350915050565b600081815260208181526040808320815160c081019092528054825260018101805485948401919061064e90610d91565b80601f016020809104026020016040519081016040528092919081815260200182805461067a90610d91565b80156106c75780601f1061069c576101008083540402835291602001916106c7565b820191906000526020600020905b8154815290600101906020018083116106aa57829003601f168201915b505050918352505060028201546020820152600382015460408201526004909101546001600160a01b038082166060840152600160a01b90910460ff16151560809283015290820151919250166107305760405162461bcd60e51b815260040161032590610bf2565b806060015181604001516107449190610d72565b9392505050565b600081815260208190526040902060048101546001600160a01b03166107835760405162461bcd60e51b815260040161032590610bf2565b6004810154600160a01b900460ff16156107af5760405162461bcd60e51b815260040161032590610cb9565b806003015481600201546107c39190610d72565b34146107e15760405162461bcd60e51b815260040161032590610c4b565b60048101805460ff60a01b1916600160a01b17815560408051606081018252338152346020808301828152428486019081526000898152600193849052868120955186546001600160a01b039182166001600160a01b03199091161787559251938601939093555160029094019390935593549251929091169161086490610aec565b60006040518083038185875af1925050503d80600081146108a1576040519150601f19603f3d011682016040523d82523d6000602084013e6108a6565b606091505b50509050806108c75760405162461bcd60e51b815260040161032590610c22565b600482015460405184917f4e083b773ab2e4b21f3c2989f2932a86856c8639dd73e802c8c6da70409b6c179161090c9133916001600160a01b03909116903490610aef565b60405180910390a2505050565b60035481565b6002818154811061092f57600080fd5b600091825260209091200154905081565b82805461094c90610d91565b90600052602060002090601f01602090048101928261096e57600085556109b4565b82601f1061098757805160ff19168380011785556109b4565b828001600101855582156109b4579182015b828111156109b4578251825591602001919060010190610999565b506109c09291506109c4565b5090565b5b808211156109c057600081556001016109c5565b6000806000606084860312156109ed578283fd5b833567ffffffffffffffff80821115610a04578485fd5b818601915086601f830112610a17578485fd5b8135602082821115610a2b57610a2b610dfd565b604051601f8301601f1916810182018481118282101715610a4e57610a4e610dfd565b60405282815284830182018a1015610a64578788fd5b8282860183830137918201810196909652979486013596505050604090930135925050565b600060208284031215610a9a578081fd5b5035919050565b60008151808452815b81811015610ac657602081850181015186830182015201610aaa565b81811115610ad75782602083870101525b50601f01601f19169290920160200192915050565b90565b6001600160a01b039384168152919092166020820152604081019190915260600190565b6001600160a01b039390931683526020830191909152604082015260600190565b6020808252825182820181905260009190848201906040850190845b81811015610b6c57835183529284019291840191600101610b50565b50909695505050505050565b600060808252610b8b6080830187610aa1565b60208301959095525060408101929092526001600160a01b0316606090910152919050565b600060a08252610bc360a0830188610aa1565b60208301969096525060408101939093526001600160a01b039190911660608301521515608090910152919050565b602080825260169082015275141c9bd91d58dd08191bd95cc81b9bdd08195e1a5cdd60521b604082015260600190565b6020808252600f908201526e151c985b9cd9995c8819985a5b1959608a1b604082015260600190565b60208082526018908201527f496e636f7272656374207061796d656e7420616d6f756e740000000000000000604082015260600190565b60208082526019908201527f5175616e74697479206d75737420626520706f73697469766500000000000000604082015260600190565b60208082526018908201527f50726f6475637420616c7265616479207061696420666f720000000000000000604082015260600190565b6020808252601690820152755072696365206d75737420626520706f73697469766560501b604082015260600190565b90815260200190565b600087825260c06020830152610d4260c0830188610aa1565b60408301969096525060608101939093526001600160a01b03919091166080830152151560a09091015292915050565b6000816000190483118215151615610d8c57610d8c610de7565b500290565b600281046001821680610da557607f821691505b60208210811415610dc657634e487b7160e01b600052602260045260246000fd5b50919050565b6000600019821415610de057610de0610de7565b5060010190565b634e487b7160e01b600052601160045260246000fd5b634e487b7160e01b600052604160045260246000fdfea2646970667358221220c71d129b1147b89409de4851506802a03f166b243fd007465644740da4c392e364736f6c63430008000033",
  "immutableReferences": {},
  "source": "// SPDX-License-Identifier: MIT\npragma solidity ^0.8.0;\n\ncontract StoreManager {\n    // Struct to store product information\n    struct Product {\n        uint256 id;\n        string name;\n        uint256 quantity;\n        uint256 unitPrice;\n        address seller;\n        bool isPaid;\n    }\n\n    // Struct to store payment information\n    struct Payment {\n        address buyer;\n        uint256 amount;\n        uint256 timestamp;\n    }\n\n    // Mappings for storage\n    mapping(uint256 => Product) public products;\n    mapping(uint256 => Payment) public payments;\n\n    uint256[] public allProductsIds;\n    uint256 public productCount;\n    uint256 private _nextProductId;\n\n    // Constructor\n    constructor() {\n        productCount = 0;\n        _nextProductId = 1;\n    }\n\n    // Events\n    event ProductCreated(\n        uint256 indexed id,\n        string name,\n        uint256 quantity,\n        uint256 unitPrice,\n        address seller\n    );\n\n    event PaymentSuccessful(\n        uint256 indexed productId,\n        address buyer,\n        address seller,\n        uint256 amount\n    );\n\n    // Create a new product\n    function createProduct(\n        string memory _name,\n        uint256 _quantity,\n        uint256 _unitPrice\n    ) external {\n        require(_quantity > 0, \"Quantity must be positive\");\n        require(_unitPrice > 0, \"Price must be positive\");\n\n        uint256 newId = _nextProductId;\n\n        products[newId] = Product({\n            id: newId,\n            name: _name,\n            quantity: _quantity,\n            unitPrice: _unitPrice,\n            seller: msg.sender,\n            isPaid: false\n        });\n\n        productCount++;\n        emit ProductCreated(newId, _name, _quantity, _unitPrice, msg.sender);\n\n        _nextProductId++;\n        allProductsIds.push(newId);\n    }\n\n    // Pay for a product\n    function payForProduct(uint256 _productId) external payable {\n        Product storage product = products[_productId];\n        require(product.seller != address(0), \"Product does not exist\");\n\n        require(!product.isPaid, \"Product already paid for\");\n        require(\n            msg.value == (product.quantity * product.unitPrice),\n            \"Incorrect payment amount\"\n        );\n\n        // Mark as paid\n        product.isPaid = true;\n\n        // Record payment\n        payments[_productId] = Payment({\n            buyer: msg.sender,\n            amount: msg.value,\n            timestamp: block.timestamp\n        });\n\n        // Transfer funds to seller using call\n        (bool success, ) = payable(product.seller).call{value: msg.value}(\"\");\n        require(success, \"Transfer failed\");\n\n        emit PaymentSuccessful(\n            _productId,\n            msg.sender,\n            product.seller,\n            msg.value\n        );\n    }\n\n    // Calculate total price (view function)\n    function calculateTotalPrice(uint256 _productId)\n        external\n        view\n        returns (uint256)\n    {\n        Product memory product = products[_productId];\n        require(product.seller != address(0), \"Product does not exist\");\n\n        return product.quantity * product.unitPrice;\n    }\n\n    // Get product details (view function)\n    function getProduct(uint256 _productId)\n        external\n        view\n        returns (\n            string memory,\n            uint256,\n            uint256,\n            address,\n            bool\n        )\n    {\n        Product memory product = products[_productId];\n        require(product.seller != address(0), \"Product does not exist\");\n\n        return (\n            product.name,\n            product.quantity,\n            product.unitPrice,\n            product.seller,\n            product.isPaid\n        );\n    }\n\n    function getAllProductIds() external view returns (uint256[] memory) {\n        return allProductsIds;\n    }\n}",
  "sourcePath": "C:\\Users\\johnc\\Documents\\Github\\Blockchain-dAPP\\simple_frontend_blockchain\\contracts\\StoreManager.sol",
  "compiler": {
    "name": "solc",
    "version": "0.8.0+commit.c7dfd78e.Emscripten.clang"
  },
  "schemaVersion": "3.4.16",
  "updatedAt": "2025-05-31T05:47:40.733Z",
  "networkType": "ethereum",
  "devdoc": {
    "kind": "dev",
    "methods": {},
    "version": 1
  },
  "userdoc": {
    "kind": "user",
    "methods": {},
    "version": 1
  }
}